:100000000C9476010C949E010C949E010C949E011C
:100010000C949E010C949E010C949E010C949E01E4
:100020000C949E010C949E010C94B9080C94400908
:100030000C949E010C949E010C949E010C949E01C4
:100040000C949E010C949E010C949E010C949E01B4
:100050000C949E010C949E010C949E010C9432030E
:100060000C949E010C949E010C949E010C949E0194
:100070000C949E010C949E010C949E010C949E0184
:100080000C949E010C949E010C949E010C949E0174
:100090000C949E010C949E010C949E010C949E0164
:1000A0000C949E010C9464020C949E0100000000CC
:1000B000240027002A002D00300000000000250049
:1000C00028002B002E003100000000002300260035
:1000D00029002C002F000404040404030405020278
:1000E00002020403020202020606060606060404D1
:1000F00002020204040802011040804010204080E7
:10010000408008020401804020100201108010206D
:1001100040400000000200080E0000030401000B34
:1001200000000000000000000000000000000000CF
:10013000070605040100080A0B0C0D09080B000254
:10014000020201000904000001020200000524006F
:100150001001052401010104240206052406000102
:100160000705810310004009040100020A00000095
:100170000705020240000007058302400000040357
:1001800009042203410072006400750069006E00DA
:100190006F0020004C0065006F006E00610072006F
:1001A00064006F001803410072006400750069006C
:1001B0006E006F0020004C004C0043001201000252
:1001C00000000040412336800001010200011201BD
:1001D00000020200004041233680000101020001BC
:1001E00000C18081C105010902A1010901A10085A9
:1001F00001050919012903150025019503750181E0
:100200000295017505810305010930093109381589
:1002100081257F750895038106C0C005010906A1E7
:10022000018502050719E029E715002501750195EB
:10023000088102950175088103950675081500254A
:10024000650507190029658100C009040200010342
:100250000000000921010100012265000705840357
:1002600040000100000000000000002A2B280000D0
:10027000000000000000000000000000000000007E
:100280000000002C9EB4A0A1A2A434A6A7A5AE365F
:100290002D3738271E1F20212223242526B333B6CD
:1002A0002EB7B89F8485868788898A8B8C8D8E8FA0
:1002B000909192939495969798999A9B9C9D2F31A3
:1002C00030A3AD350405060708090A0B0C0D0E0F07
:1002D000101112131415161718191A1B1C1DAFB183
:1002E000B0B50000A0016405F507C30A11241FBEC4
:1002F000CFEFDAE0DEBFCDBF11E0A0E0B1E0E2E594
:10030000F8E102C005900D92A634B107D9F711E0CB
:10031000A6E4B1E001C01D92AB3CB107E1F712E0E9
:10032000CCEED2E004C02297FE010E94230CC43E12
:10033000D107C9F70E942F060C94270C0C940000DB
:1003400086E491E066E047E028EC30E00E941A0283
:100350000895882329F48DE061E00E94E604089561
:100360008DE060E00E94E60408958DE061E00E9467
:10037000590480E00E94A90187EA91E060E875E2F3
:100380000E94190568EE73E080E090E00E94A003EF
:1003900080E00E94A90160ED77E080E090E00E949B
:1003A000A00308950F931F9386E491E00E94020337
:1003B00069E370E00E94EB0B8B0187EA91E04AE071
:1003C00050E00E941B0787EA91E060E071E00E9424
:1003D0002C0787EA91E00E946C0680E001501040F3
:1003E0000D31110508F481E01F910F9108950E94CD
:1003F000D201882379F087EA91E063E071E00E94FE
:100400002F0781E00E94A90160E67AEE80E090E08B
:100410000E94A00380E00E94A90187EA91E061E1C7
:1004200071E00E942F0760ED77E080E090E00E948D
:10043000A0030895CF93DF93EC01862F90E0FC0199
:10044000EC50FF4FE491EC83A42FB0E0FD01EC50A1
:10045000FF4FE491ED838A529F4FFC01449150E09D
:10046000440F551FFA01E654FF4F859194919F83E5
:100470008E83AA52BF4FFD018491E82FF0E0EE0F6A
:10048000FF1FE853FF4F859194919B878A87FA015C
:10049000E455FF4F8591949199878887F1E0253F36
:1004A0003F0714F024EF31E089E390E0AC01249F92
:1004B000C001259F900D349F900D11244C969D876F
:1004C0008C87DF91CF9108951F920F920FB60F92F4
:1004D00011242F933F934F935F936F937F938F9349
:1004E0009F93AF93BF93EF93FF93E0915801F091E7
:1004F0005901309709F00995FF91EF91BF91AF91A4
:100500009F918F917F916F915F914F913F912F912B
:100510000F900FBE0F901F901895CF93DF93EC01B3
:10052000E885F98580819C81892B8083EE81FF811C
:1005300090818C8180958923808384E090E00E9463
:10054000F903EE81FF8180819C81892B80838AE081
:1005500090E00E94F903EE81FF8190818C8180956B
:1005600089238083E885F98590818C818095892312
:1005700080830E947A03605B794B8F4F9F4F6E8719
:100580007F87888B998BEA85FB85208130E08D8180
:1005900090E028233923232BC9F00E947A032E856B
:1005A0003F8548895989261737074807590770F04A
:1005B000EACF0E947A032E853F85488959892617FC
:1005C00037074807590710F480E019C0EA85FB8512
:1005D000208130E08D8190E028233923232B49F3BB
:1005E0000E947A032C853D8540E050E0260F371F9E
:1005F000481F591F2E873F87488B598B81E0DF9119
:10060000CF910895CF93DF93EC010E948D02882350
:1006100061F422C00E947A032E853F85488959895A
:100620002617370748075907B8F0EA85FB85208168
:1006300030E08D8190E028233923232B59F70E9445
:100640007A034C855D85455050402E853F85421B81
:10065000530B460F571F02C040E050E0CA01DF9124
:10066000CF9108951F920F920FB60F9211242F93DE
:100670003F938F939F93AF93BF9380915E0190912F
:100680005F01A0916001B09161013091620101961A
:10069000A11DB11D232F2D5F2D3720F02D57019661
:1006A000A11DB11D2093620180935E0190935F01B3
:1006B000A0936001B093610180915A0190915B0118
:1006C000A0915C01B0915D010196A11DB11D8093C7
:1006D0005A0190935B01A0935C01B0935D01BF91BF
:1006E000AF919F918F913F912F910F900FBE0F90DF
:1006F0001F9018959FB7F89420915A0130915B0193
:1007000040915C0150915D0186B5A89B06C08F3F6A
:1007100021F02F5F3F4F4F4F5F4F9FBF542F432F0D
:10072000322F2227280F311D411D511D82E0220F3B
:10073000331F441F551F8A95D1F7B901CA01089587
:100740009B01AC017FB7F89480915A0190915B01B5
:10075000A0915C01B0915D0166B5A89B05C06F3F9B
:1007600019F00196A11DB11D7FBFBA2FA92F982F97
:100770008827860F911DA11DB11D62E0880F991F6A
:10078000AA1FBB1F6A95D1F7BC012DC0FFB7F89413
:1007900080915A0190915B01A0915C01B0915D0143
:1007A000E6B5A89B05C0EF3F19F00196A11DB11D4C
:1007B000FFBFBA2FA92F982F88278E0F911DA11D3B
:1007C000B11DE2E0880F991FAA1FBB1FEA95D1F760
:1007D000861B970B885E9340C8F221503040404002
:1007E000504068517C4F211531054105510571F686
:1007F0000895019739F0880F991F880F991F029764
:100800000197F1F70895789484B5826084BD84B52A
:10081000816084BD85B5826085BD85B5816085BDFB
:10082000EEE6F0E0808181608083E1E8F0E0108214
:10083000808182608083808181608083E0E8F0E055
:10084000808181608083E1E9F0E080818260808343
:10085000808181608083E0E9F0E080818160808335
:10086000E1ECF0E08081846080838081826080831D
:10087000808181608083E3ECF0E08081816080830F
:10088000E0ECF0E0808182608083E2ECF0E0808147
:1008900081608083EAE7F0E08081846080838081EA
:1008A0008260808380818160808380818068808392
:1008B0000895CF93DF93482F50E0CA018C509F4F8B
:1008C000FC0134914A525F4FFA018491882369F107
:1008D00090E0880F991FFC01E455FF4FA591B4915A
:1008E000FC01E654FF4FC591D491662351F42FB714
:1008F000F8948C91932F909589238C9388818923E8
:100900000BC0623061F42FB7F8948C91932F9095BF
:1009100089238C938881832B88832FBF06C09FB740
:10092000F8948C91832B8C939FBFDF91CF91089586
:10093000883071F1893068F4823031F1833020F4ED
:10094000813009F042C01DC0833089F08430E9F560
:1009500012C08B3059F18C3028F48930E9F08A309C
:10096000A1F51EC08C3031F18E3079F529C080910F
:1009700080008F7703C0809180008F7D80938000FE
:10098000089584B58F7702C084B58F7D84BD0895A6
:10099000809190008F7707C0809190008F7D03C079
:1009A00080919000877F8093900008958091C0008F
:1009B0008F7703C08091C0008F7D8093C000089521
:1009C0008091C200877F8093C2000895FF920F93A9
:1009D0001F93F62E482F50E0CA018E5E9E4FFC01F9
:1009E0002491CA018C509F4FFC0114914A525F4FD1
:1009F000FA0104910023C9F0222319F0822F0E94EA
:100A00009804E02FF0E0EE0FFF1FE654FF4FA59192
:100A1000B4919FB7F894FF2021F48C911095812315
:100A200002C08C91812B8C939FBF1F910F91FF90DF
:100A3000089508952091A3013091A4018091A5010A
:100A40009091A601281B390B2F733070C9010895AE
:100A50002091A3013091A4018091A5019091A6015C
:100A60002817390719F42FEF3FEF09C0E091A501CE
:100A7000F091A601ED59FE4F8081282F30E0C90189
:100A800008952091A3013091A4018091A501909136
:100A9000A6012817390719F42FEF3FEF13C0E09193
:100AA000A501F091A601ED59FE4F20818091A5018D
:100AB0009091A60101968F7390709093A6018093F8
:100AC000A50130E0C90108951092AA011092A90170
:100AD00088EE93E0A0E0B0E08093AB019093AC018E
:100AE000A093AD01B093AE018AE291E09093A8018A
:100AF0008093A70108950F931F93DF93CF930F92D5
:100B0000CDB7DEB78C01698380912301882369F01A
:100B100083E0BE016F5F7F4F41E050E00E94140808
:100B20001816190614F49C0107C081E090E0F80142
:100B30009383828320E030E0C9010F90CF91DF9151
:100B40001F910F91089583E00E94EB070895CF93C2
:100B5000DF9312C082E00E9476072FEF8F3F92074B
:100B6000C9F0E091A301F091A401ED59FE4F8083FB
:100B7000D093A401C093A301C091A301D091A4017B
:100B80002196CF73D0708091A5019091A601C817CE
:100B9000D90701F7DF91CF910895FC0180818E5F25
:100BA000808380E86CE371E042E450E00E948F07AC
:100BB0000895FC0181819081913A59F4813209F0C4
:100BC0004CC080E06CE171E047E050E00E948F078C
:100BD00042C0913209F041C0803239F48CE191E099
:100BE00067E070E00E94D30736C0823209F035C05A
:100BF00082818093230180911C0190911D01A0911D
:100C00001E01B0911F01805B9440A040B04019F5D7
:100C10008091230180FD12C087E797E79093010838
:100C2000809300082BE088E190E00FB6F894A89537
:100C3000809360000FBE209360000DC088E10FB666
:100C4000F89480936000109260000FBEA8951092F7
:100C500001081092000881E0089580E00895CF9384
:100C6000DF930E9403048DEB91E00E94F6070E943F
:100C7000B501C0E0D0E00E94F7012097E1F30E94A7
:100C80000000F9CFCF92DF92EF92FF920F931F9364
:100C9000CF93DF937C016B018A01C0E0D0E00FC0ED
:100CA000D6016D916D01D701ED91FC910190F0811C
:100CB000E02DC7010995C80FD91F0150104001153B
:100CC000110571F7CE01DF91CF911F910F91FF9028
:100CD000EF90DF90CF900895EF92FF920F931F93C4
:100CE0008C01DC01ED91FC910190F081E02D6DE033
:100CF00009957C01D801ED91FC910190F081E02DE6
:100D0000C8016AE009959C012E0D3F1DC9011F9184
:100D10000F91FF90EF900895CF93DF93EC01611551
:100D2000710519F420E030E00FC0DB010D900020C8
:100D3000E9F71197A61BB70BE881F9810280F381CF
:100D4000E02DAD0109959C01C901DF91CF91089576
:100D50004F925F927F928F929F92AF92BF92CF926B
:100D6000DF92EF92FF920F931F93DF93CF93CDB754
:100D7000DEB7A1970FB6F894DEBF0FBECDBF2C0132
:100D8000742ECB01223008F42AE019A231E2C32EDE
:100D9000D12CCC0EDD1E822E9924AA24BB24672DD3
:100DA000752FA50194010E94FF0B79018A01C801EA
:100DB000B701A50194010E94CC0B472D461B089456
:100DC000C108D1084A3014F4405D01C0495CF60105
:100DD0004083E114F1040105110521F07E2C5F2D03
:100DE000C801DDCFC201B6010E948C06A1960FB6E4
:100DF000F894DEBF0FBECDBFCF91DF911F910F9151
:100E0000FF90EF90DF90CF90BF90AF909F908F902A
:100E10007F905F904F900895DC012115310541F4DA
:100E2000ED91FC910190F081E02D642F09950895DA
:100E30000E94A8060895EF92FF920F931F939A01C4
:100E40007B0100E010E0B801A7010E940C071F9190
:100E50000F91FF90EF9008950E948C060895EF92F5
:100E6000FF920F931F937C010E948C068C01C70197
:100E70000E946C06080F191FC8011F910F91FF9067
:100E8000EF900895282F8091B7018823C1F057FF74
:100E90001AC015C028989093B6018091F1008193F3
:100EA000E217F307B9F74115510539F08091F200C7
:100EB000882319F48BE68093E800AFBF02C04FEFA0
:100EC0005FEFCA010895AFB7F89427702093E90047
:100ED0008091F200282F30E0241735070CF4A90187
:100EE000FB019B01240F311D94E6DACFDF93CF93F2
:100EF0000F92CDB7DEB7BE016F5F7F4F41E050E08C
:100F00000E944207019719F02FEF3FEF03C089813C
:100F1000282F30E0C9010F90CF91DF910895FF9203
:100F20000F931F93F82E142F052F4091BA01509163
:100F3000BB01212F302FC901DC01FB016EEF29C05D
:100F4000F7FE02C0949101C090812091B8013091C8
:100F5000B90124173507ACF48091E8008570E1F3FE
:100F60008091E80082FF03C02FEF3FEF17C09093FE
:100F7000F100C90101968F739070892B11F4609371
:100F8000E8002F5F3F4F3093B9012093B8011197CC
:100F900031961097A9F6812F902F9C01C9011F91BE
:100FA0000F91FF9008959C018091E80082FFFCCF93
:100FB000F901260F311D03C08091F1008193E217E2
:100FC000F307D1F7289884E68093B6018BEF8093DE
:100FD000E800CB0108958093E9008091F200882316
:100FE00019F08AE38093E800089508951092B701FC
:100FF00081E08093D70080EA8093D80082E189BDA8
:1010000009B400FEFDCF61E070E080E090E00E9456
:10101000A00380E98093D8008CE08093E2001092D6
:10102000E000559A209A08955F926F927F928F9276
:101030009F92AF92BF92CF92DF92EF92FF920F9367
:101040001F93CF93DF93E82E842E752E8091B701E6
:10105000882371F18B01242F352FC901EC017AEF20
:10106000F72E67E0962E9E2050E4552E8E2D90E0B0
:1010700040E2A42EB12CA822B9223AE3632E20E448
:10108000C22ED12CC822D92258C09FB7F894909272
:10109000E9008091E80085FD02C020E004C0809155
:1010A000F200252D281B9FBF222361F4FA9419F426
:1010B0002FEF3FEF4DC061E070E080E090E00E94D4
:1010C000A0033BC0822F90E0C817D9070CF42C2F47
:1010D000C21BD1094FB7F8949092E900A114B10452
:1010E00021F406C01092F10021502223D9F719C033
:1010F000E7FC03C0F801922F10C0C801322F06C0D0
:10110000FC010196E491E093F10031503323C1F7E3
:1011100006C081918093F10091509923D1F7020F7D
:10112000111D8091E80085FF05C0209729F4C114A6
:10113000D10411F06092E8004FBF209709F0A5CFCD
:101140005D9884E68093B501282D372DC9019C0157
:10115000C901DF91CF911F910F91FF90EF90DF9028
:10116000CF90BF90AF909F908F907F906F905F9047
:1011700008951F920F920FB60F9211242F933F9351
:101180004F935F936F937F938F939F93AF93BF938F
:10119000EF93FF938091E1001092E100982F83FF7D
:1011A0000FC01092E90081E08093EB001092EC00F8
:1011B00082E38093ED001092B70188E08093F00005
:1011C00092FF34C083E08093E9008091F20088238D
:1011D00019F08AE38093E8008FB7F89492E0909337
:1011E000E9009091F2008FBF992321F087EA91E006
:1011F0000E94A7058091B501882351F08091B50127
:1012000081508093B5018091B501882309F45D9ADE
:101210008091B601882351F08091B601815080936E
:10122000B6018091B601882309F4289AFF91EF91C5
:10123000BF91AF919F918F917F916F915F914F91EE
:101240003F912F910F900FBE0F901F9018950F9305
:101250001F93DF93CF930F92CDB7DEB719828E0124
:101260000F5F1F4FC8010E94CD05C8010E94C00B2F
:10127000898190E00F90CF91DF911F910F91089598
:101280001F920F920FB60F921124EF92FF921F93AD
:101290002F933F934F935F936F937F938F939F937E
:1012A000AF93BF93EF93FF93DF93CF93CDB7DEB7A9
:1012B0006197DEBFCDBF1092E9008091E80083FF07
:1012C0000FC1FE0131969E01275F3F4F03C0809101
:1012D000F1008193E217F307D1F7289884E6809311
:1012E000B60182EF8093E800998197FF05C0809155
:1012F000E80080FFFCCF03C08EEF8093E800292F29
:1013000030E0C90180769070892B09F0C2C08A81D3
:10131000882329F41092F1001092F100D6C0813098
:1013200009F4D3C0833009F4D0C0853049F48091EA
:10133000E80080FFFCCF8B8180688093E300C5C00C
:10134000863009F07CC01C81EF80F8841230C1F532
:101350001092E9001092B9011092B8011092BB01ED
:101360001092BA010E94270999E0FE013996DF0127
:10137000292F1D922A95E9F799871A8791E09E8770
:1013800090E8988B9AEF998B2091B8013091B90130
:10139000275F3F4F3C872B878D871092E900109283
:1013A000B9011092B801F092BB01E092BA0180E05D
:1013B000BF0149E050E00E948F070E94270985C0C5
:1013C0001092E9001092B9011092B801F092BB019D
:1013D000E092BA01123241F482E290E00E94B80B2E
:1013E000892B09F476C071C0113079F488E0E816D1
:1013F000F10419F481E08093BC018091BC01882341
:1014000009F06BC0ECEBF1E013C0133009F061C0E0
:101410008B81882319F4EEE7F1E00AC0823019F4D9
:10142000E2E8F1E005C0813009F053C0E4EAF1E000
:10143000449180E8BF0150E00E948F0746C087308A
:1014400009F447C0883021F481E08093F1003DC069
:101450008930D9F523703070232BD9F5E1EEF1E016
:1014600091E031E026E39093E9003093EB00849122
:101470008093EC002093ED009F5F3196953099F7B3
:101480008EE78093EA001092EA008B818093B70187
:101490001CC08F8198851092E9001092B9011092BA
:1014A000B8019093BB018093BA018D81882329F400
:1014B000CE0101960E94D90506C0823051F4CE01BA
:1014C00001960E94890A882321F08EEF8093E8001C
:1014D00007C081E28093EB0003C0EEECF1E0A8CFFF
:1014E0006196DEBFCDBFCF91DF91FF91EF91BF91AC
:1014F000AF919F918F917F916F915F914F913F91AC
:101500002F911F91FF90EF900F900FBE0F901F90A3
:101510001895FC0191818081813A31F4913089F0F4
:1015200080E0933089F40DC0813269F49B3021F45E
:1015300082818093240105C09A3029F482818093AE
:10154000250181E0089580E00895EF92FF920F93C6
:101550001F938C01E62EDC01ED91FC910480F58156
:10156000E02D0995F82ED801ED91FC910680F781C8
:10157000E02DC8016E2D09958F2D90E01F910F91E0
:10158000FF90EF9008951092BE011092C201109248
:10159000C1018CE391E09093C0018093BF01089555
:1015A000EF92FF920F931F93DF93CF930F92CDB7DC
:1015B000DEB789838B017A0184E0BE016F5F7F4FC4
:1015C00041E050E00E94140884E4B801A7010E94A1
:1015D00014080F90CF91DF911F910F91FF90EF9022
:1015E000089582E048E050E00E94D00A0895FC018E
:1015F00016821782108611861286138614823496FC
:10160000BF010E94F10A0895DC01683810F06858A3
:1016100029C0E62FF0E067FF13C0E058F04081E0FA
:1016200090E002C0880F991FEA95E2F78095149622
:101630002C911497282314962C93149760E012C0D1
:10164000ED59FD4F6491662319F420E030E01DC090
:1016500067FF08C014968C9114978D7F14968C9315
:1016600014976F77FD0190E0662321F0868186173D
:1016700009F416829F5F31969630B1F7CD0114962A
:10168000BD010E94F10A21E030E0C9010895CF9325
:10169000DF93DC01683810F0685825C0E62FF0E0D1
:1016A00067FF12C0E058F04081E090E002C0880F70
:1016B000991FEA95E2F714962C911497282B14960B
:1016C0002C93149760E00FC0ED59FD4F6491662391
:1016D000D9F167FF08C014968C9114978260149614
:1016E0008C9314976F7716968C9116978617A9F19D
:1016F00017968C911797861781F118968C911897E9
:10170000861759F119968C911997861731F11A9607
:101710008C911A97861709F11B968C911B97861747
:10172000E1F0ED01E0E0F0E09E2F8E81882321F4CE
:10173000EA0FFB1F668306C09F5F31962196E63055
:10174000F10591F7963049F481E090E013969C936F
:101750008E93129720E030E007C0CD011496BD01B2
:101760000E94F10A21E030E0C901DF91CF91089594
:1017700080E865EE71E045E650E00E948F0708952D
:10178000FC0180818F5F808380E86AE472E049E138
:1017900050E00E948F070895629FD001739FF0016F
:1017A000829FE00DF11D649FE00DF11D929FF00DF1
:1017B000839FF00D749FF00D659FF00D9927729F28
:1017C000B00DE11DF91F639FB00DE11DF91FBD01B3
:1017D000CF0111240895AA1BBB1B51E107C0AA1F0A
:1017E000BB1FA617B70710F0A61BB70B881F991FC2
:1017F0005A95A9F780959095BC01CD010895A1E275
:101800001A2EAA1BBB1BFD010DC0AA1FBB1FEE1F7A
:10181000FF1FA217B307E407F50720F0A21BB30BC5
:10182000E40BF50B661F771F881F991F1A9469F741
:1018300060957095809590959B01AC01BD01CF019D
:101840000895EE0FFF1F0590F491E02D0994F89490
:02185000FFCFC8
:10185200636D004761746F206170617265636575C5
:101862000057616974696E672E2E2E0000E1000038
:10187200000000000101000000007B0542061A057D
:1018820041052805A305A70500000000A50A420698
:06189200470B040BF70AEE
:00000001FF
